{
  "contractName": "DCVS",
  "abi": [
    {
      "inputs": [],
      "stateMutability": "nonpayable",
      "type": "constructor"
    },
    {
      "inputs": [],
      "name": "Admin",
      "outputs": [
        {
          "internalType": "address",
          "name": "",
          "type": "address"
        }
      ],
      "stateMutability": "view",
      "type": "function",
      "constant": true
    },
    {
      "inputs": [
        {
          "internalType": "address",
          "name": "_publicKey",
          "type": "address"
        },
        {
          "internalType": "string",
          "name": "_fileHash",
          "type": "string"
        },
        {
          "internalType": "string",
          "name": "_ipfsHash",
          "type": "string"
        }
      ],
      "name": "storeData",
      "outputs": [],
      "stateMutability": "nonpayable",
      "type": "function"
    },
    {
      "inputs": [
        {
          "internalType": "string",
          "name": "_id",
          "type": "string"
        },
        {
          "internalType": "string",
          "name": "_name",
          "type": "string"
        },
        {
          "internalType": "address",
          "name": "_publicKey",
          "type": "address"
        }
      ],
      "name": "storeUserInfo",
      "outputs": [],
      "stateMutability": "nonpayable",
      "type": "function"
    },
    {
      "inputs": [
        {
          "internalType": "address",
          "name": "_publicKey",
          "type": "address"
        }
      ],
      "name": "getData",
      "outputs": [
        {
          "internalType": "address",
          "name": "PUBLICKEY__",
          "type": "address"
        },
        {
          "internalType": "string",
          "name": "FILEHASH__",
          "type": "string"
        },
        {
          "internalType": "string",
          "name": "IPFSHASH__",
          "type": "string"
        },
        {
          "internalType": "address",
          "name": "certifier",
          "type": "address"
        },
        {
          "internalType": "uint256",
          "name": "TIMESTAMP__",
          "type": "uint256"
        }
      ],
      "stateMutability": "view",
      "type": "function",
      "constant": true
    },
    {
      "inputs": [],
      "name": "getTotalUser",
      "outputs": [
        {
          "internalType": "uint256",
          "name": "TOTAL__",
          "type": "uint256"
        },
        {
          "internalType": "string[]",
          "name": "INFOLIST__",
          "type": "string[]"
        }
      ],
      "stateMutability": "view",
      "type": "function",
      "constant": true
    },
    {
      "inputs": [
        {
          "internalType": "string",
          "name": "_id",
          "type": "string"
        }
      ],
      "name": "getUserInfo",
      "outputs": [
        {
          "internalType": "string",
          "name": "ID_",
          "type": "string"
        },
        {
          "internalType": "string",
          "name": "NAME__",
          "type": "string"
        },
        {
          "internalType": "address",
          "name": "PUBLICKEY__",
          "type": "address"
        }
      ],
      "stateMutability": "view",
      "type": "function",
      "constant": true
    }
  ],
  "bytecode": "0x608060405233600360006101000a81548173ffffffffffffffffffffffffffffffffffffffff021916908373ffffffffffffffffffffffffffffffffffffffff16021790555034801561005157600080fd5b50735ca9499c3bf66f0dfca00c3798b8c4e40d2e4ce16000806101000a81548173ffffffffffffffffffffffffffffffffffffffff021916908373ffffffffffffffffffffffffffffffffffffffff1602179055506110ac806100b56000396000f3fe608060405234801561001057600080fd5b50600436106100625760003560e01c806338266b22146100675780637c9b7fdd1461009b578063a9c63aa0146100cd578063cccbca5e146100ec578063e172248614610108578063ff1b636d14610124575b600080fd5b610081600480360381019061007c9190610a43565b610142565b604051610092959493929190610b31565b60405180910390f35b6100b560048036038101906100b09190610cc7565b6103a0565b6040516100c493929190610d10565b60405180910390f35b6100d561054e565b6040516100e3929190610e61565b60405180910390f35b61010660048036038101906101019190610e91565b61068d565b005b610122600480360381019061011d9190610f1c565b610766565b005b61012c61090a565b6040516101399190610fa7565b60405180910390f35b600060608060008085600160008873ffffffffffffffffffffffffffffffffffffffff1673ffffffffffffffffffffffffffffffffffffffff168152602001908152602001600020600001600160008973ffffffffffffffffffffffffffffffffffffffff1673ffffffffffffffffffffffffffffffffffffffff168152602001908152602001600020600101600160008a73ffffffffffffffffffffffffffffffffffffffff1673ffffffffffffffffffffffffffffffffffffffff16815260200190815260200160002060020160009054906101000a900473ffffffffffffffffffffffffffffffffffffffff16600160008b73ffffffffffffffffffffffffffffffffffffffff1673ffffffffffffffffffffffffffffffffffffffff1681526020019081526020016000206003015483805461028190610ff1565b80601f01602080910402602001604051908101604052809291908181526020018280546102ad90610ff1565b80156102fa5780601f106102cf576101008083540402835291602001916102fa565b820191906000526020600020905b8154815290600101906020018083116102dd57829003601f168201915b5050505050935082805461030d90610ff1565b80601f016020809104026020016040519081016040528092919081815260200182805461033990610ff1565b80156103865780601f1061035b57610100808354040283529160200191610386565b820191906000526020600020905b81548152906001019060200180831161036957829003601f168201915b505050505092509450945094509450945091939590929450565b60608060006004846040516103b5919061105f565b90815260200160405180910390206000016004856040516103d6919061105f565b90815260200160405180910390206001016004866040516103f7919061105f565b908152602001604051809103902060020160009054906101000a900473ffffffffffffffffffffffffffffffffffffffff1682805461043590610ff1565b80601f016020809104026020016040519081016040528092919081815260200182805461046190610ff1565b80156104ae5780601f10610483576101008083540402835291602001916104ae565b820191906000526020600020905b81548152906001019060200180831161049157829003601f168201915b505050505092508180546104c190610ff1565b80601f01602080910402602001604051908101604052809291908181526020018280546104ed90610ff1565b801561053a5780601f1061050f5761010080835404028352916020019161053a565b820191906000526020600020905b81548152906001019060200180831161051d57829003601f168201915b505050505091509250925092509193909250565b6000606060008054906101000a900473ffffffffffffffffffffffffffffffffffffffff1673ffffffffffffffffffffffffffffffffffffffff163373ffffffffffffffffffffffffffffffffffffffff16146105aa57600080fd5b600580549050600580805480602002602001604051908101604052809291908181526020016000905b8282101561067f5783829060005260206000200180546105f290610ff1565b80601f016020809104026020016040519081016040528092919081815260200182805461061e90610ff1565b801561066b5780601f106106405761010080835404028352916020019161066b565b820191906000526020600020905b81548152906001019060200180831161064e57829003601f168201915b5050505050815260200190600101906105d3565b505050509050915091509091565b600060048460405161069f919061105f565b90815260200160405180910390209050838160000190805190602001906106c792919061092e565b50828160010190805190602001906106e092919061092e565b50818160020160006101000a81548173ffffffffffffffffffffffffffffffffffffffff021916908373ffffffffffffffffffffffffffffffffffffffff16021790555060058490806001815401808255809150506001900390600052602060002001600090919091909150908051906020019061075f92919061092e565b5050505050565b60008054906101000a900473ffffffffffffffffffffffffffffffffffffffff1673ffffffffffffffffffffffffffffffffffffffff163373ffffffffffffffffffffffffffffffffffffffff16146107be57600080fd5b6000600160008573ffffffffffffffffffffffffffffffffffffffff1673ffffffffffffffffffffffffffffffffffffffff16815260200190815260200160002090508281600001908051906020019061081992919061092e565b508181600101908051906020019061083292919061092e565b50600360009054906101000a900473ffffffffffffffffffffffffffffffffffffffff168160020160006101000a81548173ffffffffffffffffffffffffffffffffffffffff021916908373ffffffffffffffffffffffffffffffffffffffff1602179055504281600301819055506002849080600181540180825580915050600190039060005260206000200160009091909190916101000a81548173ffffffffffffffffffffffffffffffffffffffff021916908373ffffffffffffffffffffffffffffffffffffffff16021790555050505050565b60008054906101000a900473ffffffffffffffffffffffffffffffffffffffff1681565b82805461093a90610ff1565b90600052602060002090601f01602090048101928261095c57600085556109a3565b82601f1061097557805160ff19168380011785556109a3565b828001600101855582156109a3579182015b828111156109a2578251825591602001919060010190610987565b5b5090506109b091906109b4565b5090565b5b808211156109cd5760008160009055506001016109b5565b5090565b6000604051905090565b600080fd5b600080fd5b600073ffffffffffffffffffffffffffffffffffffffff82169050919050565b6000610a10826109e5565b9050919050565b610a2081610a05565b8114610a2b57600080fd5b50565b600081359050610a3d81610a17565b92915050565b600060208284031215610a5957610a586109db565b5b6000610a6784828501610a2e565b91505092915050565b610a7981610a05565b82525050565b600081519050919050565b600082825260208201905092915050565b60005b83811015610ab9578082015181840152602081019050610a9e565b83811115610ac8576000848401525b50505050565b6000601f19601f8301169050919050565b6000610aea82610a7f565b610af48185610a8a565b9350610b04818560208601610a9b565b610b0d81610ace565b840191505092915050565b6000819050919050565b610b2b81610b18565b82525050565b600060a082019050610b466000830188610a70565b8181036020830152610b588187610adf565b90508181036040830152610b6c8186610adf565b9050610b7b6060830185610a70565b610b886080830184610b22565b9695505050505050565b600080fd5b600080fd5b7f4e487b7100000000000000000000000000000000000000000000000000000000600052604160045260246000fd5b610bd482610ace565b810181811067ffffffffffffffff82111715610bf357610bf2610b9c565b5b80604052505050565b6000610c066109d1565b9050610c128282610bcb565b919050565b600067ffffffffffffffff821115610c3257610c31610b9c565b5b610c3b82610ace565b9050602081019050919050565b82818337600083830152505050565b6000610c6a610c6584610c17565b610bfc565b905082815260208101848484011115610c8657610c85610b97565b5b610c91848285610c48565b509392505050565b600082601f830112610cae57610cad610b92565b5b8135610cbe848260208601610c57565b91505092915050565b600060208284031215610cdd57610cdc6109db565b5b600082013567ffffffffffffffff811115610cfb57610cfa6109e0565b5b610d0784828501610c99565b91505092915050565b60006060820190508181036000830152610d2a8186610adf565b90508181036020830152610d3e8185610adf565b9050610d4d6040830184610a70565b949350505050565b600081519050919050565b600082825260208201905092915050565b6000819050602082019050919050565b600082825260208201905092915050565b6000610d9d82610a7f565b610da78185610d81565b9350610db7818560208601610a9b565b610dc081610ace565b840191505092915050565b6000610dd78383610d92565b905092915050565b6000602082019050919050565b6000610df782610d55565b610e018185610d60565b935083602082028501610e1385610d71565b8060005b85811015610e4f5784840389528151610e308582610dcb565b9450610e3b83610ddf565b925060208a01995050600181019050610e17565b50829750879550505050505092915050565b6000604082019050610e766000830185610b22565b8181036020830152610e888184610dec565b90509392505050565b600080600060608486031215610eaa57610ea96109db565b5b600084013567ffffffffffffffff811115610ec857610ec76109e0565b5b610ed486828701610c99565b935050602084013567ffffffffffffffff811115610ef557610ef46109e0565b5b610f0186828701610c99565b9250506040610f1286828701610a2e565b9150509250925092565b600080600060608486031215610f3557610f346109db565b5b6000610f4386828701610a2e565b935050602084013567ffffffffffffffff811115610f6457610f636109e0565b5b610f7086828701610c99565b925050604084013567ffffffffffffffff811115610f9157610f906109e0565b5b610f9d86828701610c99565b9150509250925092565b6000602082019050610fbc6000830184610a70565b92915050565b7f4e487b7100000000000000000000000000000000000000000000000000000000600052602260045260246000fd5b6000600282049050600182168061100957607f821691505b6020821081141561101d5761101c610fc2565b5b50919050565b600081905092915050565b600061103982610a7f565b6110438185611023565b9350611053818560208601610a9b565b80840191505092915050565b600061106b828461102e565b91508190509291505056fea264697066735822122002dfa2d4bff67dee986c5460fd3790dea01a377cdb77ebed9f401e3d9ad8e1d464736f6c63430008090033",
  "immutableReferences": {},
  "source": "//SPDX-License-Identifier: UNLICENSED\r\n\r\npragma solidity >0.6.10;\r\n\r\n/// @title DCVS\r\n\r\ncontract DCVS{\r\n    \r\n    //Admin address\r\n    address public Admin;\r\n    \r\n    //Constructor to set admin\r\n    constructor() {\r\n        Admin = 0x5CA9499c3Bf66F0DfcA00c3798B8c4E40D2E4ce1;\r\n    }\r\n    \r\n    //Modifier onlyAdmin\r\n    modifier onlyAdmin{\r\n        require(msg.sender==Admin);\r\n        _;\r\n    }\r\n    \r\n   /**\r\n    * @dev struct to hold data\r\n    * \r\n    * @param fileHash : string, hash of file/content (certificate)\r\n    * @param ipfsHash : string, hash of file in ipfs. (IPFS returned hash)\r\n    * @param certifier : address, certifier address\r\n    * @param timeSTAMP : uint, timeStamp of data storage\r\n   **/\r\n   struct certificateData {\r\n       string fileHash;\r\n       string ipfsHash;\r\n       address certifier;\r\n       uint timeSTAMP;\r\n   }\r\n   \r\n   \r\n   /**\r\n    * @dev struct to hold data of a users\r\n    *\r\n    * @param userAddress : address,user address\r\n    * @param id :  uint, stores id of user\r\n    * @param publicKey : address, stores private key of the user\r\n    * @param name : string, name of user\r\n    */\r\n    struct info{\r\n        string id;\r\n        string name;\r\n        address publicKey;\r\n    }\r\n   \r\n   \r\n   // @mapping : maps, struct certificateData to string, string is Public key of user.\r\n   mapping(address => certificateData) certificateDatas;\r\n   \r\n   // @var : string array, holds all users id\r\n   address[] dataList; \r\n   \r\n   // @var admin : address, msg.sender address\r\n   address admin = msg.sender;\r\n   \r\n   \r\n    //@mapping : maps, struct info to string, string is ID of user.\r\n    mapping(string => info) infos;\r\n    \r\n    //@var : string array, holds all user id\r\n    string[] infoList;\r\n   \r\n   \r\n   /**\r\n    * @dev function to get data input and store it in dataList array\r\n    * \r\n    * @param _publicKey : address, publicKey of users\r\n    * @param _fileHash : string, hash of file to be stored\r\n    * @param _ipfsHash: string, hash of file in ipfs to be stored\r\n    * \r\n    * onlyAdmin can call this function\r\n    * function declares new certificateData type struct, assigns required data and pushes it in dataList array as a tuple\r\n    **/\r\n   function storeData(address _publicKey, string memory _fileHash, string  memory _ipfsHash) public onlyAdmin {\r\n       certificateData storage _certificateData = certificateDatas[_publicKey];\r\n       \r\n       _certificateData.fileHash = _fileHash;\r\n       _certificateData.ipfsHash = _ipfsHash;\r\n       _certificateData.certifier = admin;\r\n       _certificateData.timeSTAMP = block.timestamp;\r\n       \r\n       dataList.push(_publicKey);\r\n   }\r\n   \r\n   /**\r\n     * @dev function to store Infos of user in struct Info and finally push Id in infoList\r\n     * \r\n     * @param _id : string, _id of user\r\n     * @param _name : string, name of user \r\n     * @param _publicKey : address, public address of user\r\n     **/\r\n    function storeUserInfo(string memory _id,string memory _name, address _publicKey) public{\r\n        info storage _info = infos[_id];\r\n    \r\n        _info.id = _id;\r\n        _info.name = _name;\r\n        _info.publicKey = _publicKey;\r\n        \r\n        infoList.push(_id);\r\n    }\r\n   \r\n   \r\n   /**\r\n    * function to get data\r\n    * \r\n    * @param _publicKey : address, publicKey of user whose data is to be displayed\r\n    * return publicKey, fileHash, ipfsHash, certifier, timestamp of provided publicKey\r\n    **/\r\n    function getData(address _publicKey) public view returns(\r\n       address PUBLICKEY__ , string memory FILEHASH__, string memory IPFSHASH__, address certifier, uint TIMESTAMP__){\r\n       return(_publicKey,certificateDatas[_publicKey].fileHash,certificateDatas[_publicKey].ipfsHash,certificateDatas[_publicKey].certifier,certificateDatas[_publicKey].timeSTAMP);\r\n   }\r\n   \r\n    \r\n    /**\r\n     * @dev function to get total ids registeres and get all of these ids\r\n     * \r\n     * returns total number of ids registered and get all these ids\r\n     * onlyAdmin can call this function\r\n     **/\r\n    function getTotalUser() public view onlyAdmin returns(uint TOTAL__, string[] memory INFOLIST__) {\r\n        return (infoList.length, infoList);\r\n    }\r\n    \r\n    \r\n    /**\r\n     * @dev function to get info of given id\r\n     * \r\n     * returns id ,name and public key of respective id \r\n     **/\r\n    function getUserInfo(string memory _id) public view returns(string memory ID_, string memory NAME__,address PUBLICKEY__){\r\n        return (infos[_id].id,infos[_id].name,infos[_id].publicKey);\r\n    }\r\n\r\n}",
  "sourcePath": "C:\\Users\\acer\\Desktop\\BLOCKCHAIN\\IPFS\\dcvs\\BLOCKCHAIN\\contracts\\DCVS.sol",
  "compiler": {
    "name": "solc",
    "version": "0.8.9+commit.e5eed63a.Emscripten.clang"
  },
  "schemaVersion": "3.4.3",
  "updatedAt": "2021-10-01T11:43:03.256Z",
  "networkType": "ethereum",
  "devdoc": {
    "kind": "dev",
    "methods": {
      "getData(address)": {
        "params": {
          "_publicKey": ": address, publicKey of user whose data is to be displayed return publicKey, fileHash, ipfsHash, certifier, timestamp of provided publicKey*"
        }
      },
      "getTotalUser()": {
        "details": "function to get total ids registeres and get all of these ids  returns total number of ids registered and get all these ids onlyAdmin can call this function*"
      },
      "getUserInfo(string)": {
        "details": "function to get info of given id  returns id ,name and public key of respective id *"
      },
      "storeData(address,string,string)": {
        "details": "function to get data input and store it in dataList array ",
        "params": {
          "_fileHash": ": string, hash of file to be stored",
          "_ipfsHash": ": string, hash of file in ipfs to be stored  onlyAdmin can call this function function declares new certificateData type struct, assigns required data and pushes it in dataList array as a tuple*",
          "_publicKey": ": address, publicKey of users"
        }
      },
      "storeUserInfo(string,string,address)": {
        "details": "function to store Infos of user in struct Info and finally push Id in infoList ",
        "params": {
          "_id": ": string, _id of user",
          "_name": ": string, name of user ",
          "_publicKey": ": address, public address of user*"
        }
      }
    },
    "title": "DCVS",
    "version": 1
  },
  "userdoc": {
    "kind": "user",
    "methods": {
      "getData(address)": {
        "notice": "function to get data "
      }
    },
    "version": 1
  }
}